:1000000002308A00572A00000A108A100A1182075B
:1000100028340C34013406344C22D2183A10251AF4
:10002000EC3A00004C2252193A10251AEC3A000022
:10003000343084008313000803192C280130F800A1
:10004000F701F70B2128F80B20284A30F700F70BAF
:1000500027282A28800B1E2808003B183128081260
:1000600032280816831608128312BB183928881202
:100070003A2888168316881283123B1941280813E0
:1000800042280817831608138312BB1949288813BE
:100090004A288817831688130000831208158316D0
:1000A00008115228831208118316081183120800C0
:1000B000BC018316081600308312081A0130BC04F4
:1000C0008316881600308312881A0130F700031057
:1000D000F70D7708BC048316081700308312081B3D
:1000E0000130F700F70DF70DFC30F7057708BC0479
:1000F0008316881700308312881B0130F700F70D34
:10010000F70DF70DF830F7057708BC043C08F80048
:10011000080083160811081088108312081083162F
:100120000810081688160817881783128814831673
:10013000881000008312081583160811000083122E
:1001400058207808BB00081183160811000083129C
:100150000815831608110000831258207808BA0089
:1001600008118316081108128812081388138312C5
:100170003B0EF700F030F70577083A04F8007808EE
:10018000BA00BA1FC52883169128B808031DCA28CB
:100190000810CB280814831608100000831288105A
:1001A0008316881000008312081183160811831229
:1001B000390EBA000F30BA053A08BB002D203908B5
:1001C0000F39BA00BB002D200800831608128812D0
:1001D000081388130811081088108312081083165A
:1001E0000810831288108316881083120811831652
:1001F00008110F308312B40018200130AA002A0819
:10020000033C031C0B290330BB002D200530B40038
:100210001820AA0AFF280230BB002D200530B400A8
:100220001820AA012A08033C031C1F292A080420BD
:10023000AB00B8012B08B9008920AA0A12298A113B
:100240000A12772A350B252928294030B60029299A
:10025000B60101303402B60736088038B700B8015D
:100260003708B900892008003308073A03194229E2
:100270000B3A03194729063A03194F29023A031981
:1002800055295A290130B400B50022215F29B8014F
:100290000130B90089200230B40018205F290130F4
:1002A000B4000230B50022215F29B8011030B90036
:1002B00089205F290130B8003308B900892008007F
:1002C0000B08AB008B13831603178C170C1400005C
:1002D00000000318922983120C087F390313AC0025
:1002E00003170D080313AD0003170F080313AE0027
:1002F0002C08B30034212D0803178D0003132E089A
:1003000003178F0083168C170C1400000000831253
:100310000313AA0B8C298F29831603179229B1295D
:100320008316031783120C0D0E0D7F390313AC00D7
:1003300003170D080313AD0003170F080313AE00D6
:100340002C08B30034212D0803178D0003132E0849
:1003500003178F008D0A03198F0A03100313AA0BCA
:100360006329AB1B8B170800B2010408B1003210DF
:10037000831B32142B0EF038AD00AD07E23EAE0009
:10038000323EB0002B080F39AE07AE07B007E93E8A
:10039000AF00AF07AF072A0E0F39AF07B007AF0D99
:1003A000B00DB009B00D2A080F39B007AD0D0730F8
:1003B000AC000A30B007AF03031CDA29AF07AE0365
:1003C000031CDE29AE07AD03031CE229AD07AC0315
:1003D000031CE6292C3084008313073031053113C8
:1003E000840730300402031931170008F700031D99
:1003F000012A311B012A311A132AB119012A20308E
:10040000042AB11531123030F707AB010408AA00F5
:100410002B10831B2B147708B30034212A08840087
:1004200083132B188317840A311FF1290800123017
:10043000AD02031C2A2A2D3084008313FC30800572
:100440000310800C800C000803192A2A282A0000B7
:10045000800B272A0800831606108312061427082B
:10046000AA00AA0AAA030319392AFF30AD001722ED
:10047000322A2608AD0017228316061083120610B2
:100480002608203CAA004E30AB002708031C270F8B
:10049000AB022B08AC00AC0AAC030319532AFF30A3
:1004A000AD0017224C2A2A08AD00172208000308C5
:1004B0001F3983000530A700DC30A6000530A900F5
:1004C000DC30A80083161F149F141F159F110730DE
:1004D0009C0083131F109F101F119F111F13831265
:1004E0001F179F1783169F1783121F14E5280030CC
:1004F0008316860006108312061083168613831255
:10050000861383160613831206131030F8001F0893
:10051000C73978049F000A30B40018201F151F192E
:100520008F2A83161E088312A0001E08A10018300F
:10053000F8001F08C73978049F000A30B40018205B
:100540001F151F19A12A83161E088312A2001E0858
:10055000A30022082002AA002108AB002308031CE4
:10056000230FAB022B08A5002A08A4000130B40019
:10057000B50022210C3003178D0000308F000310CE
:1005800006300313AA006021013084002108AB006B
:100590002008AA00B4210130B4000230B5002221A5
:1005A000123003178D0000308F0003100630031344
:1005B000AA006021013084002308AB002208AA00B1
:1005C000B421A508031DE82A2408313C0318372B61
:1005D00023082102031C0E2B031DF22A20082202ED
:1005E00003180E2B83160613831206138316861325
:1005F000831286172B222708A9002608A80027089F
:100600000A3C031C0D2B031D092B2608283C031C48
:100610000D2B0A30A6070318A70A362B2108230240
:10062000031C362B031D182B220820020318362B1F
:1006300083160613831206138316861383128617F6
:100640002B222908A7002808A6002908013C031826
:10065000362BFF3A031D302B2808573C0318362B46
:100660000A30A8020030031C0130A9023F2B831678
:10067000061383120617831686138312861302301D
:10068000AA00FA30B4001820AA0B412B852A630077
:02400E00313F40
:00000001FF
;PIC16F877A
;CRC=56D7  CREATED="04-Feb-25 22:39"
